{
  "contractName": "Rental",
  "abi": [
    {
      "inputs": [
        {
          "internalType": "address",
          "name": "_tenant",
          "type": "address"
        },
        {
          "internalType": "uint256",
          "name": "_durationInMonths",
          "type": "uint256"
        },
        {
          "internalType": "uint256",
          "name": "_depositDue",
          "type": "uint256"
        },
        {
          "internalType": "uint256",
          "name": "_monthlyRent",
          "type": "uint256"
        }
      ],
      "name": "createLease",
      "outputs": [
        {
          "internalType": "address",
          "name": "",
          "type": "address"
        }
      ],
      "stateMutability": "nonpayable",
      "type": "function"
    },
    {
      "inputs": [],
      "name": "getLease",
      "outputs": [
        {
          "components": [
            {
              "internalType": "uint256",
              "name": "id",
              "type": "uint256"
            },
            {
              "internalType": "address",
              "name": "landlord",
              "type": "address"
            },
            {
              "internalType": "address",
              "name": "tenant",
              "type": "address"
            },
            {
              "internalType": "uint256",
              "name": "durationInMonths",
              "type": "uint256"
            },
            {
              "internalType": "uint256",
              "name": "depositDue",
              "type": "uint256"
            },
            {
              "internalType": "uint256",
              "name": "monthlyRent",
              "type": "uint256"
            }
          ],
          "internalType": "struct Rental.Lease",
          "name": "",
          "type": "tuple"
        }
      ],
      "stateMutability": "view",
      "type": "function"
    }
  ],
  "bytecode": "0x608060405234801561001057600080fd5b5061050a806100206000396000f3fe608060405234801561001057600080fd5b50600436106100365760003560e01c80630337afb51461003b5780636c5421e21461006b575b600080fd5b61005560048036038101906100509190610329565b610089565b6040516100629190610434565b60405180910390f35b6100736101af565b604051610080919061044f565b60405180910390f35b6000806040518060c00160405280600081526020013373ffffffffffffffffffffffffffffffffffffffff1681526020018773ffffffffffffffffffffffffffffffffffffffff16815260200186815260200185815260200184815250905080600080820151816000015560208201518160010160006101000a81548173ffffffffffffffffffffffffffffffffffffffff021916908373ffffffffffffffffffffffffffffffffffffffff16021790555060408201518160020160006101000a81548173ffffffffffffffffffffffffffffffffffffffff021916908373ffffffffffffffffffffffffffffffffffffffff160217905550606082015181600301556080820151816004015560a0820151816005015590505085915050949350505050565b6101b761029d565b60006040518060c0016040529081600082015481526020016001820160009054906101000a900473ffffffffffffffffffffffffffffffffffffffff1673ffffffffffffffffffffffffffffffffffffffff1673ffffffffffffffffffffffffffffffffffffffff1681526020016002820160009054906101000a900473ffffffffffffffffffffffffffffffffffffffff1673ffffffffffffffffffffffffffffffffffffffff1673ffffffffffffffffffffffffffffffffffffffff1681526020016003820154815260200160048201548152602001600582015481525050905090565b6040518060c0016040528060008152602001600073ffffffffffffffffffffffffffffffffffffffff168152602001600073ffffffffffffffffffffffffffffffffffffffff1681526020016000815260200160008152602001600081525090565b60008135905061030e816104a6565b92915050565b600081359050610323816104bd565b92915050565b6000806000806080858703121561033f57600080fd5b600061034d878288016102ff565b945050602061035e87828801610314565b935050604061036f87828801610314565b925050606061038087828801610314565b91505092959194509250565b6103958161046a565b82525050565b6103a48161046a565b82525050565b60c0820160008201516103c06000850182610425565b5060208201516103d3602085018261038c565b5060408201516103e6604085018261038c565b5060608201516103f96060850182610425565b50608082015161040c6080850182610425565b5060a082015161041f60a0850182610425565b50505050565b61042e8161049c565b82525050565b6000602082019050610449600083018461039b565b92915050565b600060c08201905061046460008301846103aa565b92915050565b60006104758261047c565b9050919050565b600073ffffffffffffffffffffffffffffffffffffffff82169050919050565b6000819050919050565b6104af8161046a565b81146104ba57600080fd5b50565b6104c68161049c565b81146104d157600080fd5b5056fea2646970667358221220e3c4ac64e4616adcb923bc45dbdade59eda132012c4129097aaccd133c3c5d5764736f6c63430008000033",
  "immutableReferences": {},
  "source": "// SPDX-License-Identifier: MIT\r\npragma solidity >= 0.8.0 <= 0.8.3;\r\n\r\n// Represents an instance of a Tenant\r\ncontract Rental {\r\n\r\n    struct Lease {\r\n        uint256 id;\r\n        address landlord;\r\n        address tenant;\r\n        uint256 durationInMonths;\r\n        uint256 depositDue;\r\n        uint256 monthlyRent;\r\n    }\r\n\r\n    // Landlord can have at most ten leases\r\n    Lease activeLease;\r\n\r\n    function createLease (address _tenant, uint256 _durationInMonths, uint256 _depositDue, uint256 _monthlyRent) public returns (address) {\r\n        Lease memory _lease = Lease({\r\n            id: 0,\r\n            landlord: msg.sender,\r\n            tenant: _tenant,\r\n            durationInMonths: _durationInMonths,\r\n            depositDue: _depositDue,\r\n            monthlyRent: _monthlyRent\r\n        });\r\n\r\n        activeLease = _lease;\r\n\r\n        // Return tenant address as confirmation\r\n        return _tenant;\r\n    }\r\n\r\n    function getLease () public view returns (Lease memory) {\r\n        return activeLease;\r\n    }\r\n}",
  "sourcePath": "C:/Users/Administrator/Documents/Code/RoofApp/contracts/Rental.sol",
  "compiler": {
    "name": "solc",
    "version": "0.8.0+commit.c7dfd78e.Emscripten.clang"
  },
  "schemaVersion": "3.3.4",
  "updatedAt": "2021-03-28T18:27:13.572Z",
  "devdoc": {
    "kind": "dev",
    "methods": {},
    "version": 1
  },
  "userdoc": {
    "kind": "user",
    "methods": {},
    "version": 1
  }
}